{
  "contractName": "BrightID",
  "abi": [
    {
      "inputs": [],
      "stateMutability": "nonpayable",
      "type": "constructor"
    },
    {
      "anonymous": false,
      "inputs": [
        {
          "indexed": false,
          "internalType": "bytes32",
          "name": "context",
          "type": "bytes32"
        },
        {
          "indexed": false,
          "internalType": "bytes32",
          "name": "contextId",
          "type": "bytes32"
        },
        {
          "indexed": false,
          "internalType": "address",
          "name": "ethAddress",
          "type": "address"
        }
      ],
      "name": "AddressLinked",
      "type": "event"
    },
    {
      "anonymous": false,
      "inputs": [
        {
          "indexed": true,
          "internalType": "bytes32",
          "name": "context",
          "type": "bytes32"
        },
        {
          "indexed": true,
          "internalType": "address",
          "name": "owner",
          "type": "address"
        }
      ],
      "name": "ContextAdded",
      "type": "event"
    },
    {
      "anonymous": false,
      "inputs": [
        {
          "indexed": true,
          "internalType": "bytes32",
          "name": "context",
          "type": "bytes32"
        },
        {
          "indexed": false,
          "internalType": "address",
          "name": "owner",
          "type": "address"
        }
      ],
      "name": "ContextOwnerAdded",
      "type": "event"
    },
    {
      "anonymous": false,
      "inputs": [
        {
          "indexed": true,
          "internalType": "bytes32",
          "name": "context",
          "type": "bytes32"
        },
        {
          "indexed": false,
          "internalType": "address",
          "name": "owner",
          "type": "address"
        }
      ],
      "name": "ContextOwnerRemoved",
      "type": "event"
    },
    {
      "anonymous": false,
      "inputs": [
        {
          "indexed": true,
          "internalType": "bytes32",
          "name": "context",
          "type": "bytes32"
        },
        {
          "indexed": false,
          "internalType": "address",
          "name": "nodeAddress",
          "type": "address"
        }
      ],
      "name": "NodeAddedToContext",
      "type": "event"
    },
    {
      "anonymous": false,
      "inputs": [
        {
          "indexed": true,
          "internalType": "bytes32",
          "name": "context",
          "type": "bytes32"
        },
        {
          "indexed": false,
          "internalType": "address",
          "name": "nodeAddress",
          "type": "address"
        }
      ],
      "name": "NodeRemovedFromContext",
      "type": "event"
    },
    {
      "anonymous": false,
      "inputs": [
        {
          "indexed": true,
          "internalType": "bytes32",
          "name": "context",
          "type": "bytes32"
        },
        {
          "indexed": true,
          "internalType": "bytes32",
          "name": "contextid",
          "type": "bytes32"
        }
      ],
      "name": "SponsorshipRequested",
      "type": "event"
    },
    {
      "inputs": [],
      "name": "id",
      "outputs": [
        {
          "internalType": "uint256",
          "name": "",
          "type": "uint256"
        }
      ],
      "stateMutability": "view",
      "type": "function"
    },
    {
      "inputs": [
        {
          "internalType": "bytes32",
          "name": "context",
          "type": "bytes32"
        }
      ],
      "name": "isContext",
      "outputs": [
        {
          "internalType": "bool",
          "name": "",
          "type": "bool"
        }
      ],
      "stateMutability": "view",
      "type": "function"
    },
    {
      "inputs": [
        {
          "internalType": "bytes32",
          "name": "context",
          "type": "bytes32"
        },
        {
          "internalType": "address",
          "name": "nodeAddress",
          "type": "address"
        }
      ],
      "name": "isNodeInContext",
      "outputs": [
        {
          "internalType": "bool",
          "name": "",
          "type": "bool"
        }
      ],
      "stateMutability": "view",
      "type": "function"
    },
    {
      "inputs": [
        {
          "internalType": "bytes32",
          "name": "context",
          "type": "bytes32"
        },
        {
          "internalType": "bytes32[]",
          "name": "cIds",
          "type": "bytes32[]"
        },
        {
          "internalType": "uint8",
          "name": "v",
          "type": "uint8"
        },
        {
          "internalType": "bytes32",
          "name": "r",
          "type": "bytes32"
        },
        {
          "internalType": "bytes32",
          "name": "s",
          "type": "bytes32"
        }
      ],
      "name": "register",
      "outputs": [],
      "stateMutability": "nonpayable",
      "type": "function"
    },
    {
      "inputs": [
        {
          "internalType": "address",
          "name": "ethAddress",
          "type": "address"
        },
        {
          "internalType": "bytes32",
          "name": "context",
          "type": "bytes32"
        }
      ],
      "name": "isUniqueHuman",
      "outputs": [
        {
          "internalType": "bool",
          "name": "",
          "type": "bool"
        },
        {
          "internalType": "address[]",
          "name": "",
          "type": "address[]"
        }
      ],
      "stateMutability": "view",
      "type": "function"
    },
    {
      "inputs": [
        {
          "internalType": "bytes32",
          "name": "context",
          "type": "bytes32"
        },
        {
          "internalType": "bytes32",
          "name": "contextid",
          "type": "bytes32"
        }
      ],
      "name": "sponsor",
      "outputs": [],
      "stateMutability": "nonpayable",
      "type": "function"
    },
    {
      "inputs": [
        {
          "internalType": "bytes32",
          "name": "context",
          "type": "bytes32"
        }
      ],
      "name": "addContext",
      "outputs": [],
      "stateMutability": "nonpayable",
      "type": "function"
    },
    {
      "inputs": [
        {
          "internalType": "bytes32",
          "name": "context",
          "type": "bytes32"
        },
        {
          "internalType": "address",
          "name": "owner",
          "type": "address"
        }
      ],
      "name": "addContextOwner",
      "outputs": [],
      "stateMutability": "nonpayable",
      "type": "function"
    },
    {
      "inputs": [
        {
          "internalType": "bytes32",
          "name": "context",
          "type": "bytes32"
        },
        {
          "internalType": "address",
          "name": "owner",
          "type": "address"
        }
      ],
      "name": "removeContextOwner",
      "outputs": [],
      "stateMutability": "nonpayable",
      "type": "function"
    },
    {
      "inputs": [
        {
          "internalType": "bytes32",
          "name": "context",
          "type": "bytes32"
        },
        {
          "internalType": "address",
          "name": "owner",
          "type": "address"
        }
      ],
      "name": "isContextOwner",
      "outputs": [
        {
          "internalType": "bool",
          "name": "",
          "type": "bool"
        }
      ],
      "stateMutability": "view",
      "type": "function"
    },
    {
      "inputs": [
        {
          "internalType": "bytes32",
          "name": "context",
          "type": "bytes32"
        },
        {
          "internalType": "address",
          "name": "nodeAddress",
          "type": "address"
        }
      ],
      "name": "addNodeToContext",
      "outputs": [],
      "stateMutability": "nonpayable",
      "type": "function"
    },
    {
      "inputs": [
        {
          "internalType": "bytes32",
          "name": "context",
          "type": "bytes32"
        },
        {
          "internalType": "address",
          "name": "nodeAddress",
          "type": "address"
        }
      ],
      "name": "removeNodeFromContext",
      "outputs": [],
      "stateMutability": "nonpayable",
      "type": "function"
    }
  ],
  "bytecode": "0x608060405234801561001057600080fd5b50600080819055506121da806100276000396000f3fe608060405234801561001057600080fd5b50600436106100b45760003560e01c806366be820d1161007157806366be820d1461038457806388283697146103d2578063a171c66514610418578063ab8ee8c114610466578063af640d0f146104cc578063bdb53d30146104ea576100b4565b8063010d1adc146100b95780630bc9d9f11461010757806331ca7934146101b55780633c8dc9bb1461029857806343414780146102fe5780634eaa554414610336575b600080fd5b610105600480360360408110156100cf57600080fd5b8101908080359060200190929190803573ffffffffffffffffffffffffffffffffffffffff169060200190929190505050610518565b005b6101536004803603604081101561011d57600080fd5b81019080803573ffffffffffffffffffffffffffffffffffffffff16906020019092919080359060200190929190505050610957565b604051808315151515815260200180602001828103825283818151815260200191508051906020019060200280838360005b838110156101a0578082015181840152602081019050610185565b50505050905001935050505060405180910390f35b610296600480360360a08110156101cb57600080fd5b8101908080359060200190929190803590602001906401000000008111156101f257600080fd5b82018360208201111561020457600080fd5b8035906020019184602083028401116401000000008311171561022657600080fd5b919080806020026020016040519081016040528093929190818152602001838360200280828437600081840152601f19601f820116905080830192505050505050509192919290803560ff1690602001909291908035906020019092919080359060200190929190505050610b42565b005b6102e4600480360360408110156102ae57600080fd5b8101908080359060200190929190803573ffffffffffffffffffffffffffffffffffffffff16906020019092919050505061144f565b604051808215151515815260200191505060405180910390f35b6103346004803603604081101561031457600080fd5b8101908080359060200190929190803590602001909291905050506114ba565b005b6103826004803603604081101561034c57600080fd5b8101908080359060200190929190803573ffffffffffffffffffffffffffffffffffffffff16906020019092919050505061162c565b005b6103d06004803603604081101561039a57600080fd5b8101908080359060200190929190803573ffffffffffffffffffffffffffffffffffffffff169060200190929190505050611840565b005b6103fe600480360360208110156103e857600080fd5b8101908080359060200190929190505050611c7f565b604051808215151515815260200191505060405180910390f35b6104646004803603604081101561042e57600080fd5b8101908080359060200190929190803573ffffffffffffffffffffffffffffffffffffffff169060200190929190505050611cac565b005b6104b26004803603604081101561047c57600080fd5b8101908080359060200190929190803573ffffffffffffffffffffffffffffffffffffffff169060200190929190505050611ebf565b604051808215151515815260200191505060405180910390f35b6104d4611f2a565b6040518082815260200191505060405180910390f35b6105166004803603602081101561050057600080fd5b8101908080359060200190929190505050611f30565b005b816001600082815260200190815260200160002060010160003373ffffffffffffffffffffffffffffffffffffffff1673ffffffffffffffffffffffffffffffffffffffff16815260200190815260200160002060009054906101000a900460ff166040518060400160405280601281526020017f4f6e6c7920636f6e74657874206f776e6572000000000000000000000000000081525090610656576040517f08c379a00000000000000000000000000000000000000000000000000000000081526004018080602001828103825283818151815260200191508051906020019080838360005b8381101561061b578082015181840152602081019050610600565b50505050905090810190601f1680156106485780820380516001836020036101000a031916815260200191505b509250505060405180910390fd5b5061066083611c7f565b6040518060400160405280601181526020017f436f6e74657874206e6f7420666f756e640000000000000000000000000000008152509061073c576040517f08c379a00000000000000000000000000000000000000000000000000000000081526004018080602001828103825283818151815260200191508051906020019080838360005b838110156107015780820151818401526020810190506106e6565b50505050905090810190601f16801561072e5780820380516001836020036101000a031916815260200191505b509250505060405180910390fd5b50600115156001600085815260200190815260200160002060020160008473ffffffffffffffffffffffffffffffffffffffff1673ffffffffffffffffffffffffffffffffffffffff16815260200190815260200160002060009054906101000a900460ff161515146040518060400160405280600e81526020017f4e6f6465206e6f7420666f756e6400000000000000000000000000000000000081525090610881576040517f08c379a00000000000000000000000000000000000000000000000000000000081526004018080602001828103825283818151815260200191508051906020019080838360005b8381101561084657808201518184015260208101905061082b565b50505050905090810190601f1680156108735780820380516001836020036101000a031916815260200191505b509250505060405180910390fd5b5060006001600085815260200190815260200160002060020160008473ffffffffffffffffffffffffffffffffffffffff1673ffffffffffffffffffffffffffffffffffffffff16815260200190815260200160002060006101000a81548160ff021916908315150217905550827f9e2a0f0fc507291ea5841a287df9c6c263ae58b9b54ff1814ff9ab162793089183604051808273ffffffffffffffffffffffffffffffffffffffff1673ffffffffffffffffffffffffffffffffffffffff16815260200191505060405180910390a2505050565b6000606060006001600085815260200190815260200160002060050160008673ffffffffffffffffffffffffffffffffffffffff1673ffffffffffffffffffffffffffffffffffffffff16815260200190815260200160002054905060008114610b3957600060018060008781526020019081526020016000206003016000848152602001908152602001600020805490500390508573ffffffffffffffffffffffffffffffffffffffff166001600087815260200190815260200160002060030160008481526020019081526020016000208281548110610a3557fe5b9060005260206000200160009054906101000a900473ffffffffffffffffffffffffffffffffffffffff1673ffffffffffffffffffffffffffffffffffffffff161415610b37576001806000878152602001908152602001600020600301600084815260200190815260200160002080805480602002602001604051908101604052809291908181526020018280548015610b2557602002820191906000526020600020905b8160009054906101000a900473ffffffffffffffffffffffffffffffffffffffff1673ffffffffffffffffffffffffffffffffffffffff1681526020019060010190808311610adb575b50505050509050935093505050610b3b565b505b505b9250929050565b610b4b85611c7f565b6040518060400160405280601181526020017f436f6e74657874206e6f7420666f756e6400000000000000000000000000000081525090610c27576040517f08c379a00000000000000000000000000000000000000000000000000000000081526004018080602001828103825283818151815260200191508051906020019080838360005b83811015610bec578082015181840152602081019050610bd1565b50505050905090810190601f168015610c195780820380516001836020036101000a031916815260200191505b509250505060405180910390fd5b5083516000106040518060400160405280600d81526020017f4e6f20636f6e746578742069640000000000000000000000000000000000000081525090610d09576040517f08c379a00000000000000000000000000000000000000000000000000000000081526004018080602001828103825283818151815260200191508051906020019080838360005b83811015610cce578082015181840152602081019050610cb3565b50505050905090810190601f168015610cfb5780820380516001836020036101000a031916815260200191505b509250505060405180910390fd5b50600060016000878152602001908152602001600020600401600086600081518110610d3157fe5b6020026020010151815260200190815260200160002054146040518060400160405280601481526020017f4475706c696361746520636f6e7465787420696400000000000000000000000081525090610e25576040517f08c379a00000000000000000000000000000000000000000000000000000000081526004018080602001828103825283818151815260200191508051906020019080838360005b83811015610dea578082015181840152602081019050610dcf565b50505050905090810190601f168015610e175780820380516001836020036101000a031916815260200191505b509250505060405180910390fd5b5060006001600087815260200190815260200160002060050160003373ffffffffffffffffffffffffffffffffffffffff1673ffffffffffffffffffffffffffffffffffffffff16815260200190815260200160002054146040518060400160405280601a81526020017f4475706c696361746520657468657265756d206164647265737300000000000081525090610f59576040517f08c379a00000000000000000000000000000000000000000000000000000000081526004018080602001828103825283818151815260200191508051906020019080838360005b83811015610f1e578082015181840152602081019050610f03565b50505050905090810190601f168015610f4b5780820380516001836020036101000a031916815260200191505b509250505060405180910390fd5b506000858560405160200180838152602001828051906020019060200280838360005b83811015610f97578082015181840152602081019050610f7c565b5050505090500192505050604051602081830303815290604052805190602001209050600060018286868660405160008152602001604052604051808581526020018460ff1660ff1681526020018381526020018281526020019450505050506020604051602081039080840390855afa158015611019573d6000803e3d6000fd5b505050602060405103519050600073ffffffffffffffffffffffffffffffffffffffff168173ffffffffffffffffffffffffffffffffffffffff1614156040518060400160405280600d81526020017f426164207369676e61747572650000000000000000000000000000000000000081525090611132576040517f08c379a00000000000000000000000000000000000000000000000000000000081526004018080602001828103825283818151815260200191508051906020019080838360005b838110156110f75780820151818401526020810190506110dc565b50505050905090810190601f1680156111245780820380516001836020036101000a031916815260200191505b509250505060405180910390fd5b506001600088815260200190815260200160002060020160008273ffffffffffffffffffffffffffffffffffffffff1673ffffffffffffffffffffffffffffffffffffffff16815260200190815260200160002060009054906101000a900460ff166040518060400160405280601181526020017f556e617574686f72697a6564206e6f646500000000000000000000000000000081525090611270576040517f08c379a00000000000000000000000000000000000000000000000000000000081526004018080602001828103825283818151815260200191508051906020019080838360005b8381101561123557808201518184015260208101905061121a565b50505050905090810190601f1680156112625780820380516001836020036101000a031916815260200191505b509250505060405180910390fd5b50600061127d8888612119565b905080600160008a815260200190815260200160002060050160003373ffffffffffffffffffffffffffffffffffffffff1673ffffffffffffffffffffffffffffffffffffffff1681526020019081526020016000208190555060008090505b60018851038110156113355781600160008b815260200190815260200160002060040160008a848151811061130e57fe5b602002602001015181526020019081526020016000208190555080806001019150506112dd565b50600160008981526020019081526020016000206003016000828152602001908152602001600020339080600181540180825580915050600190039060005260206000200160009091909190916101000a81548173ffffffffffffffffffffffffffffffffffffffff021916908373ffffffffffffffffffffffffffffffffffffffff1602179055507f57ac0505c837b9363241c4e20d8528b64b0ad43cedfda9951fac66d2c344556988886000815181106113ed57fe5b602002602001015133604051808481526020018381526020018273ffffffffffffffffffffffffffffffffffffffff1673ffffffffffffffffffffffffffffffffffffffff168152602001935050505060405180910390a15050505050505050565b60006001600084815260200190815260200160002060010160008373ffffffffffffffffffffffffffffffffffffffff1673ffffffffffffffffffffffffffffffffffffffff16815260200190815260200160002060009054906101000a900460ff16905092915050565b816001600082815260200190815260200160002060010160003373ffffffffffffffffffffffffffffffffffffffff1673ffffffffffffffffffffffffffffffffffffffff16815260200190815260200160002060009054906101000a900460ff166040518060400160405280601281526020017f4f6e6c7920636f6e74657874206f776e65720000000000000000000000000000815250906115f8576040517f08c379a00000000000000000000000000000000000000000000000000000000081526004018080602001828103825283818151815260200191508051906020019080838360005b838110156115bd5780820151818401526020810190506115a2565b50505050905090810190601f1680156115ea5780820380516001836020036101000a031916815260200191505b509250505060405180910390fd5b5081837f8ae2aea5032422b82805a5cb61116a62faf7e78c67d1daa5f62472cb6319a99c60405160405180910390a3505050565b816001600082815260200190815260200160002060010160003373ffffffffffffffffffffffffffffffffffffffff1673ffffffffffffffffffffffffffffffffffffffff16815260200190815260200160002060009054906101000a900460ff166040518060400160405280601281526020017f4f6e6c7920636f6e74657874206f776e657200000000000000000000000000008152509061176a576040517f08c379a00000000000000000000000000000000000000000000000000000000081526004018080602001828103825283818151815260200191508051906020019080838360005b8381101561172f578082015181840152602081019050611714565b50505050905090810190601f16801561175c5780820380516001836020036101000a031916815260200191505b509250505060405180910390fd5b5060006001600085815260200190815260200160002060010160008473ffffffffffffffffffffffffffffffffffffffff1673ffffffffffffffffffffffffffffffffffffffff16815260200190815260200160002060006101000a81548160ff021916908315150217905550827f9d8b492ee0f7e6e489d581287de5090c824037448ac6ae68453184c806252f4b83604051808273ffffffffffffffffffffffffffffffffffffffff1673ffffffffffffffffffffffffffffffffffffffff16815260200191505060405180910390a2505050565b816001600082815260200190815260200160002060010160003373ffffffffffffffffffffffffffffffffffffffff1673ffffffffffffffffffffffffffffffffffffffff16815260200190815260200160002060009054906101000a900460ff166040518060400160405280601281526020017f4f6e6c7920636f6e74657874206f776e657200000000000000000000000000008152509061197e576040517f08c379a00000000000000000000000000000000000000000000000000000000081526004018080602001828103825283818151815260200191508051906020019080838360005b83811015611943578082015181840152602081019050611928565b50505050905090810190601f1680156119705780820380516001836020036101000a031916815260200191505b509250505060405180910390fd5b5061198883611c7f565b6040518060400160405280601181526020017f436f6e74657874206e6f7420666f756e6400000000000000000000000000000081525090611a64576040517f08c379a00000000000000000000000000000000000000000000000000000000081526004018080602001828103825283818151815260200191508051906020019080838360005b83811015611a29578082015181840152602081019050611a0e565b50505050905090810190601f168015611a565780820380516001836020036101000a031916815260200191505b509250505060405180910390fd5b50600115156001600085815260200190815260200160002060020160008473ffffffffffffffffffffffffffffffffffffffff1673ffffffffffffffffffffffffffffffffffffffff16815260200190815260200160002060009054906101000a900460ff16151514156040518060400160405280600e81526020017f416c72656164792065786973747300000000000000000000000000000000000081525090611baa576040517f08c379a00000000000000000000000000000000000000000000000000000000081526004018080602001828103825283818151815260200191508051906020019080838360005b83811015611b6f578082015181840152602081019050611b54565b50505050905090810190601f168015611b9c5780820380516001836020036101000a031916815260200191505b509250505060405180910390fd5b50600180600085815260200190815260200160002060020160008473ffffffffffffffffffffffffffffffffffffffff1673ffffffffffffffffffffffffffffffffffffffff16815260200190815260200160002060006101000a81548160ff021916908315150217905550827f40ba43f9cd0b3d52dea6c0e9a132d46267afbcf9b3bb7879c21c117fb94d31ad83604051808273ffffffffffffffffffffffffffffffffffffffff1673ffffffffffffffffffffffffffffffffffffffff16815260200191505060405180910390a2505050565b60006001600083815260200190815260200160002060000160009054906101000a900460ff169050919050565b816001600082815260200190815260200160002060010160003373ffffffffffffffffffffffffffffffffffffffff1673ffffffffffffffffffffffffffffffffffffffff16815260200190815260200160002060009054906101000a900460ff166040518060400160405280601281526020017f4f6e6c7920636f6e74657874206f776e6572000000000000000000000000000081525090611dea576040517f08c379a00000000000000000000000000000000000000000000000000000000081526004018080602001828103825283818151815260200191508051906020019080838360005b83811015611daf578082015181840152602081019050611d94565b50505050905090810190601f168015611ddc5780820380516001836020036101000a031916815260200191505b509250505060405180910390fd5b50600180600085815260200190815260200160002060010160008473ffffffffffffffffffffffffffffffffffffffff1673ffffffffffffffffffffffffffffffffffffffff16815260200190815260200160002060006101000a81548160ff021916908315150217905550827fdc0ccaabf49d51a0536d3c0214d2609ce531c09a669d8d61dd0a8df06ad5002683604051808273ffffffffffffffffffffffffffffffffffffffff1673ffffffffffffffffffffffffffffffffffffffff16815260200191505060405180910390a2505050565b60006001600084815260200190815260200160002060020160008373ffffffffffffffffffffffffffffffffffffffff1673ffffffffffffffffffffffffffffffffffffffff16815260200190815260200160002060009054906101000a900460ff16905092915050565b60005481565b600115156001600083815260200190815260200160002060000160009054906101000a900460ff16151514156040518060400160405280600e81526020017f416c72656164792065786973747300000000000000000000000000000000000081525090612038576040517f08c379a00000000000000000000000000000000000000000000000000000000081526004018080602001828103825283818151815260200191508051906020019080838360005b83811015611ffd578082015181840152602081019050611fe2565b50505050905090810190601f16801561202a5780820380516001836020036101000a031916815260200191505b509250505060405180910390fd5b50600180600083815260200190815260200160002060000160006101000a81548160ff021916908315150217905550600180600083815260200190815260200160002060010160003373ffffffffffffffffffffffffffffffffffffffff1673ffffffffffffffffffffffffffffffffffffffff16815260200190815260200160002060006101000a81548160ff0219169083151502179055503373ffffffffffffffffffffffffffffffffffffffff16817fa23a656c047fb4192ebd799b8df3170215f26092733230a3a9cafa2bda8bb8d860405160405180910390a350565b600080600190505b600183510381101561218c57600060016000868152602001908152602001600020600401600085848151811061215357fe5b602002602001015181526020019081526020016000205490506000811461217e57809250505061219e565b508080600101915050612121565b50600080815460010191905081905590505b9291505056fea264697066735822122078ecb029ec11ad78902b587459e5c2f4229487e715d82b9f23428c8ec54fa33564736f6c63430006040033",
  "source": "pragma solidity ^0.6.3;\n\ncontract BrightID {\n    uint256 public id;\n\n    struct Context {\n        bool isActive;\n        mapping(address => bool) owners;\n        mapping(address => bool) nodes;\n        mapping(uint256 => address[]) accounts;\n        mapping(bytes32 => uint256) cIdToUid;\n        mapping(address => uint256) ethToUid;\n    }\n\n    mapping(bytes32 => Context) private contexts;\n\n    string private constant DUPLICATE_ETHEREUM_ADDRESS = \"Duplicate ethereum address\";\n    string private constant DUPLICATE_CONTEXT_ID = \"Duplicate context id\";\n    string private constant ONLY_CONTEXT_OWNER = \"Only context owner\";\n    string private constant UNAUTHORIZED_NODE = \"Unauthorized node\";\n    string private constant CONTEXT_NOT_FOUND = \"Context not found\";\n    string private constant NODE_NOT_FOUND = \"Node not found\";\n    string private constant ALREADY_EXISTS = \"Already exists\";\n    string private constant BAD_SIGNATURE = \"Bad signature\";\n    string private constant NO_CONTEXT_ID = \"No context id\";\n\n    /// Events\n    event ContextAdded(bytes32 indexed context, address indexed owner);\n    event ContextOwnerAdded(bytes32 indexed context, address owner);\n    event ContextOwnerRemoved(bytes32 indexed context, address owner);\n    event NodeAddedToContext(bytes32 indexed context, address nodeAddress);\n    event NodeRemovedFromContext(bytes32 indexed context, address nodeAddress);\n    event AddressLinked(bytes32 context, bytes32 contextId, address ethAddress);\n    event SponsorshipRequested(bytes32 indexed context, bytes32 indexed contextid);\n\n    constructor()\n        public\n    {\n        id = 0;\n    }\n\n    /**\n     * @notice Check whether the context has been added to the smart contract using `addContext`.\n     * @param context The context.\n     * @return has the context been added?\n     */\n    function isContext(bytes32 context)\n        public\n        view\n        returns(bool)\n    {\n        return contexts[context].isActive;\n    }\n\n    /**\n     * @notice Check whether `nodeAddress`'s signature is acceptable for the context.\n     * @param context The context.\n     * @param nodeAddress The node's address.\n     * @return can `nodeAddress` sign requests for this context?\n     */\n    function isNodeInContext(bytes32 context, address nodeAddress)\n        public\n        view\n        returns(bool)\n    {\n        return contexts[context].nodes[nodeAddress];\n    }\n\n    /**\n     * @dev get uid.\n     * @param context The context.\n     * @param cIds an array of contextIds.\n     */\n    function getUid(bytes32 context, bytes32[] memory cIds)\n        internal\n        returns(uint256)\n    {\n        for(uint256 i=1; i < cIds.length-1; i++) {\n            uint256 uid = contexts[context].cIdToUid[cIds[i]];\n            if (uid != 0) {\n                return uid;\n            }\n        }\n        return ++id;\n    }\n\n    /**\n     * @notice Link `cIds[0]` to `msg.sender` under `context`.\n     * @param context The context.\n     * @param cIds an array of contextIds.\n     * @param v signature's v.\n     * @param r signature's r.\n     * @param s signature's s.\n     */\n    function register(\n        bytes32 context,\n        bytes32[] memory cIds,\n        uint8 v,\n        bytes32 r,\n        bytes32 s)\n        public\n    {\n        require(isContext(context), CONTEXT_NOT_FOUND);\n        require(0 < cIds.length, NO_CONTEXT_ID);\n        require(contexts[context].cIdToUid[cIds[0]] == 0, DUPLICATE_CONTEXT_ID);\n        require(contexts[context].ethToUid[msg.sender] == 0, DUPLICATE_ETHEREUM_ADDRESS);\n\n        bytes32 message = keccak256(abi.encodePacked(context, cIds));\n        address signerAddress = ecrecover(message, v, r, s);\n        require(signerAddress != address(0), BAD_SIGNATURE);\n        require(contexts[context].nodes[signerAddress], UNAUTHORIZED_NODE);\n\n        uint256 uid = getUid(context, cIds);\n\n        contexts[context].ethToUid[msg.sender] = uid;\n\n        for(uint256 i=0; i < cIds.length-1; i++) {\n            contexts[context].cIdToUid[cIds[i]] = uid;\n        }\n\n        // The last member of contexts[context].accounts[uid] is active address of the user\n        contexts[context].accounts[uid].push(msg.sender);\n\n        emit AddressLinked(context, cIds[0], msg.sender);\n    }\n\n    /**\n     * @notice Check that `ethAddress` is the mostly recently used address by a unique human in the context.\n     * Also return any addresses previously used by this unique human.\n     * @param ethAddress an Ethereum address.\n     * @param context the context.\n     * @return is `ethAddress` the most recently used address by a unique human in the `context`.\n     * @return addresses previously used by this unique human.\n     */\n    function isUniqueHuman(\n        address ethAddress,\n        bytes32 context)\n        public\n        view\n        returns(bool, address[] memory)\n    {\n        uint256 uid = contexts[context].ethToUid[ethAddress];\n        if (uid != 0) {\n            uint256 lastIndex = contexts[context].accounts[uid].length - 1;\n            if (contexts[context].accounts[uid][lastIndex] == ethAddress) {\n                return(true, contexts[context].accounts[uid]);\n            }\n        }\n    }\n\n    /**\n     * @notice Submit a request to sponsor `contextid` under `context`.\n     * @param context The context.\n     * @param contextid The contextid.\n     */\n    function sponsor(bytes32 context, bytes32 contextid)\n        public\n        onlyContextOwner(context)\n    {\n        emit SponsorshipRequested(context, contextid);\n    }\n\n    /**\n     * @notice Add a context.\n     * @param context The context.\n     */\n    function addContext(bytes32 context)\n        public\n    {\n        require(contexts[context].isActive != true, ALREADY_EXISTS);\n\n        contexts[context].isActive = true;\n        contexts[context].owners[msg.sender] = true;\n        emit ContextAdded(context, msg.sender);\n    }\n\n    /**\n     * @notice Add a context owner.\n     * @param context The context.\n     * @param owner The address of the context owner to be added.\n     */\n    function addContextOwner(bytes32 context, address owner)\n        public\n        onlyContextOwner(context)\n    {\n        contexts[context].owners[owner] = true;\n        emit ContextOwnerAdded(context, owner);\n    }\n\n    /**\n     * @notice Remove a context owner.\n     * @param context The context.\n     * @param owner The address of the context owner to be removed.\n     */\n    function removeContextOwner(bytes32 context, address owner)\n        public\n        onlyContextOwner(context)\n    {\n        contexts[context].owners[owner] = false;\n        emit ContextOwnerRemoved(context, owner);\n    }\n\n\n    /**\n     * @notice Check that `owner` is a owner of `context`.\n     * @param context The context.\n     * @param owner The new context's owner.\n     */\n    function isContextOwner(bytes32 context, address owner)\n        public\n        view\n        returns(bool)\n    {\n        return contexts[context].owners[owner];\n    }\n\n    /**\n     * @notice Add `nodeAddress` as a node to the context.\n     * @param context The context.\n     * @param nodeAddress The node's address.\n     */\n    function addNodeToContext(bytes32 context, address nodeAddress)\n        public\n        onlyContextOwner(context)\n    {\n        require(isContext(context), CONTEXT_NOT_FOUND);\n        require(contexts[context].nodes[nodeAddress] != true, ALREADY_EXISTS);\n\n        contexts[context].nodes[nodeAddress] = true;\n        emit NodeAddedToContext(context, nodeAddress);\n    }\n\n    /**\n     * @notice Remove `nodeAddress` from the context's nodes.\n     * @param context The context.\n     * @param nodeAddress The node's address.\n     */\n    function removeNodeFromContext(bytes32 context, address nodeAddress)\n        public\n        onlyContextOwner(context)\n    {\n        require(isContext(context), CONTEXT_NOT_FOUND);\n        require(contexts[context].nodes[nodeAddress] == true, NODE_NOT_FOUND);\n\n        contexts[context].nodes[nodeAddress] = false;\n        emit NodeRemovedFromContext(context, nodeAddress);\n    }\n\n    /**\n     * @dev Throws if called by any account other than the owner of the context.\n     * @param context The context.\n     */\n    modifier onlyContextOwner(bytes32 context) {\n        require(contexts[context].owners[msg.sender], ONLY_CONTEXT_OWNER);\n        _;\n    }\n}\n",
  "sourcePath": "/home/player1/bin/sponsor/contracts/BrightID.sol",
  "compiler": {
    "name": "solc",
    "version": "0.6.4+commit.1dca32f3.Emscripten.clang"
  },
  "schemaVersion": "3.0.23",
  "updatedAt": "2020-04-01T15:45:10.149Z",
  "devdoc": {
    "methods": {
      "addContext(bytes32)": {
        "params": {
          "context": "The context."
        }
      },
      "addContextOwner(bytes32,address)": {
        "params": {
          "context": "The context.",
          "owner": "The address of the context owner to be added."
        }
      },
      "addNodeToContext(bytes32,address)": {
        "params": {
          "context": "The context.",
          "nodeAddress": "The node's address."
        }
      },
      "isContext(bytes32)": {
        "params": {
          "context": "The context."
        },
        "returns": {
          "_0": "has the context been added?"
        }
      },
      "isContextOwner(bytes32,address)": {
        "params": {
          "context": "The context.",
          "owner": "The new context's owner."
        }
      },
      "isNodeInContext(bytes32,address)": {
        "params": {
          "context": "The context.",
          "nodeAddress": "The node's address."
        },
        "returns": {
          "_0": "can `nodeAddress` sign requests for this context?"
        }
      },
      "isUniqueHuman(address,bytes32)": {
        "params": {
          "context": "the context.",
          "ethAddress": "an Ethereum address."
        },
        "returns": {
          "_0": "is `ethAddress` the most recently used address by a unique human in the `context`.",
          "_1": "addresses previously used by this unique human."
        }
      },
      "register(bytes32,bytes32[],uint8,bytes32,bytes32)": {
        "params": {
          "cIds": "an array of contextIds.",
          "context": "The context.",
          "r": "signature's r.",
          "s": "signature's s.",
          "v": "signature's v."
        }
      },
      "removeContextOwner(bytes32,address)": {
        "params": {
          "context": "The context.",
          "owner": "The address of the context owner to be removed."
        }
      },
      "removeNodeFromContext(bytes32,address)": {
        "params": {
          "context": "The context.",
          "nodeAddress": "The node's address."
        }
      },
      "sponsor(bytes32,bytes32)": {
        "params": {
          "context": "The context.",
          "contextid": "The contextid."
        }
      }
    }
  },
  "userdoc": {
    "methods": {
      "addContext(bytes32)": {
        "notice": "Add a context."
      },
      "addContextOwner(bytes32,address)": {
        "notice": "Add a context owner."
      },
      "addNodeToContext(bytes32,address)": {
        "notice": "Add `nodeAddress` as a node to the context."
      },
      "isContext(bytes32)": {
        "notice": "Check whether the context has been added to the smart contract using `addContext`."
      },
      "isContextOwner(bytes32,address)": {
        "notice": "Check that `owner` is a owner of `context`."
      },
      "isNodeInContext(bytes32,address)": {
        "notice": "Check whether `nodeAddress`'s signature is acceptable for the context."
      },
      "isUniqueHuman(address,bytes32)": {
        "notice": "Check that `ethAddress` is the mostly recently used address by a unique human in the context. Also return any addresses previously used by this unique human."
      },
      "register(bytes32,bytes32[],uint8,bytes32,bytes32)": {
        "notice": "Link `cIds[0]` to `msg.sender` under `context`."
      },
      "removeContextOwner(bytes32,address)": {
        "notice": "Remove a context owner."
      },
      "removeNodeFromContext(bytes32,address)": {
        "notice": "Remove `nodeAddress` from the context's nodes."
      },
      "sponsor(bytes32,bytes32)": {
        "notice": "Submit a request to sponsor `contextid` under `context`."
      }
    }
  }
}