{
  "contractName": "brightIDSponsor",
  "abi": [
    {
      "anonymous": false,
      "inputs": [
        {
          "indexed": false,
          "internalType": "address",
          "name": "",
          "type": "address"
        }
      ],
      "name": "Sponsor",
      "type": "event"
    },
    {
      "stateMutability": "payable",
      "type": "fallback"
    },
    {
      "stateMutability": "payable",
      "type": "receive"
    },
    {
      "inputs": [
        {
          "internalType": "address",
          "name": "add",
          "type": "address"
        }
      ],
      "name": "sponsor",
      "outputs": [],
      "stateMutability": "nonpayable",
      "type": "function"
    }
  ],
  "bytecode": "0x608060405234801561001057600080fd5b5061011e806100206000396000f3fe608060405260043610601f5760003560e01c8063766c4f3714603557602c565b36602c57602a336082565b005b6033336082565b005b348015604057600080fd5b50608060048036036020811015605557600080fd5b81019080803573ffffffffffffffffffffffffffffffffffffffff1690602001909291905050506082565b005b7f45731ed8c44f9ae4a6da66b49b81184a6565962041a2485f62942faa4da6df6081604051808273ffffffffffffffffffffffffffffffffffffffff1673ffffffffffffffffffffffffffffffffffffffff16815260200191505060405180910390a15056fea264697066735822122058c0f24658148ca0d95eb39e9c190f7176ecb0f2e6fef14e47e01cf06a4522bb64736f6c63430006090033",
  "source": "pragma solidity ^0.6.4;\n\ncontract brightIDSponsor {\n\n event Sponsor(address);\n\n // sponsor any address that attempts to call a function other than sponsor() in this contract.\n fallback() external payable {\n  sponsor(msg.sender);\n }\n\n // sponsor any address that sends a transaction to this contract.\n receive() external payable {\n   sponsor(msg.sender);\n }\n\n // sponsor any address provided as a parameter.\n function sponsor(address add) public {\n   emit Sponsor(add);\n }\n}\n",
  "sourcePath": "/home/player1/bin/burn/sponsor/contracts/brightIDSponsor.sol",
  "compiler": {
    "name": "solc",
    "version": "0.6.9+commit.3e3065ac.Emscripten.clang"
  },
  "schemaVersion": "3.0.23",
  "updatedAt": "2020-06-04T17:47:23.673Z",
  "devdoc": {
    "methods": {}
  },
  "userdoc": {
    "methods": {}
  }
}