{
  "contractName": "Sponsor",
  "abi": [
    {
      "inputs": [
        {
          "internalType": "address",
          "name": "_brightID",
          "type": "address"
        },
        {
          "internalType": "string",
          "name": "_context",
          "type": "string"
        }
      ],
      "stateMutability": "nonpayable",
      "type": "constructor"
    },
    {
      "anonymous": false,
      "inputs": [
        {
          "indexed": false,
          "internalType": "string",
          "name": "context",
          "type": "string"
        },
        {
          "indexed": false,
          "internalType": "address",
          "name": "_sender",
          "type": "address"
        }
      ],
      "name": "NewSponsorship",
      "type": "event"
    },
    {
      "inputs": [],
      "name": "brightID",
      "outputs": [
        {
          "internalType": "address",
          "name": "",
          "type": "address"
        }
      ],
      "stateMutability": "view",
      "type": "function"
    },
    {
      "inputs": [],
      "name": "context",
      "outputs": [
        {
          "internalType": "string",
          "name": "",
          "type": "string"
        }
      ],
      "stateMutability": "view",
      "type": "function"
    },
    {
      "inputs": [],
      "name": "sponsor",
      "outputs": [],
      "stateMutability": "payable",
      "type": "function"
    }
  ],
  "bytecode": "0x608060405234801561001057600080fd5b506040516107213803806107218339818101604052604081101561003357600080fd5b81019080805190602001909291908051604051939291908464010000000082111561005d57600080fd5b8382019150602082018581111561007357600080fd5b825186600182028301116401000000008211171561009057600080fd5b8083526020830192505050908051906020019080838360005b838110156100c45780820151818401526020810190506100a9565b50505050905090810190601f1680156100f15780820380516001836020036101000a031916815260200191505b50604052505050816000806101000a81548173ffffffffffffffffffffffffffffffffffffffff021916908373ffffffffffffffffffffffffffffffffffffffff160217905550806001908051906020019061014e929190610156565b5050506101fb565b828054600181600116156101000203166002900490600052602060002090601f016020900481019282601f1061019757805160ff19168380011785556101c5565b828001600101855582156101c5579182015b828111156101c45782518255916020019190600101906101a9565b5b5090506101d291906101d6565b5090565b6101f891905b808211156101f45760008160009055506001016101dc565b5090565b90565b6105178061020a6000396000f3fe6080604052600436106100345760003560e01c806377c9366214610039578063d0496d6a14610043578063fceb1a57146100d3575b600080fd5b61004161012a565b005b34801561004f57600080fd5b506100586103f3565b6040518080602001828103825283818151815260200191508051906020019080838360005b8381101561009857808201518184015260208101905061007d565b50505050905090810190601f1680156100c55780820380516001836020036101000a031916815260200191505b509250505060405180910390f35b3480156100df57600080fd5b506100e8610491565b604051808273ffffffffffffffffffffffffffffffffffffffff1673ffffffffffffffffffffffffffffffffffffffff16815260200191505060405180910390f35b606061016a6040518060400160405280600881526020017f657468657265756d0000000000000000000000000000000000000000000000008152506104b6565b3373ffffffffffffffffffffffffffffffffffffffff1660001b60405160240180838152602001828152602001925050506040516020818303038152906040527f43414780000000000000000000000000000000000000000000000000000000007bffffffffffffffffffffffffffffffffffffffffffffffffffffffff19166020820180517bffffffffffffffffffffffffffffffffffffffffffffffffffffffff83818316178352505050509050600060606000809054906101000a900473ffffffffffffffffffffffffffffffffffffffff1673ffffffffffffffffffffffffffffffffffffffff16836040518082805190602001908083835b6020831061028a5780518252602082019150602081019050602083039250610267565b6001836020036101000a0380198251168184511680821785525050505050509050019150506000604051808303816000865af19150503d80600081146102ec576040519150601f19603f3d011682016040523d82523d6000602084013e6102f1565b606091505b50915091508161030057600080fd5b7ff7bb792c9f45f3a7bd95f6514bfb47cd49e188feb3a341bf93e495547a6be3ba60013360405180806020018373ffffffffffffffffffffffffffffffffffffffff1673ffffffffffffffffffffffffffffffffffffffff1681526020018281038252848181546001816001161561010002031660029004815260200191508054600181600116156101000203166002900480156103df5780601f106103b4576101008083540402835291602001916103df565b820191906000526020600020905b8154815290600101906020018083116103c257829003601f168201915b5050935050505060405180910390a1505050565b60018054600181600116156101000203166002900480601f0160208091040260200160405190810160405280929190818152602001828054600181600116156101000203166002900480156104895780601f1061045e57610100808354040283529160200191610489565b820191906000526020600020905b81548152906001019060200180831161046c57829003601f168201915b505050505081565b6000809054906101000a900473ffffffffffffffffffffffffffffffffffffffff1681565b600060608290506000815114156104d3576000801b9150506104dc565b60208301519150505b91905056fea2646970667358221220a654c17d3b8638500c6a308390f5bb745a2931db69e10f068a8f0cbc76325c0164736f6c63430006040033",
  "source": "pragma solidity >=0.4.21 <0.7.0;\n\ncontract Sponsor {\n  address public brightID;\n  string public context;\n\n  event NewSponsorship(string context, address _sender);\n\n  constructor(address _brightID,string memory _context) public {\n    brightID = _brightID;\n    context = _context;\n  }\n\n  function stringToBytes32(string memory source) private returns (bytes32 result) {\n      bytes memory tempEmptyStringTest = bytes(source);\n      if (tempEmptyStringTest.length == 0) {\n          return 0x0;\n      }\n\n      assembly {\n          result := mload(add(source, 32))\n      }\n  }\n\n  // sponser any address that sends a transaction to this contract.\n  function sponsor() public payable {\n    bytes memory payload = abi.encodeWithSignature(\"sponsor(bytes32,bytes32)\", stringToBytes32(\"ethereum\"),bytes32(uint256(msg.sender)));\n    (bool success, bytes memory returnData) = address(brightID).call(payload);\n    require(success);\n\n    emit NewSponsorship(context, msg.sender);\n  }\n}\n",
  "sourcePath": "/home/player1/bin/sponsor/contracts/Sponsor.sol",
  "compiler": {
    "name": "solc",
    "version": "0.6.4+commit.1dca32f3.Emscripten.clang"
  },
  "schemaVersion": "3.0.23",
  "updatedAt": "2020-04-01T15:48:23.687Z",
  "devdoc": {
    "methods": {}
  },
  "userdoc": {
    "methods": {}
  }
}