{
  "contractName": "Sponsor",
  "abi": [
    {
      "anonymous": false,
      "inputs": [
        {
          "indexed": false,
          "internalType": "address",
          "name": "sponsee",
          "type": "address"
        }
      ],
      "name": "sponsor",
      "type": "event"
    },
    {
      "stateMutability": "payable",
      "type": "fallback",
      "payable": true
    },
    {
      "inputs": [],
      "name": "context",
      "outputs": [
        {
          "internalType": "bytes32",
          "name": "",
          "type": "bytes32"
        }
      ],
      "stateMutability": "view",
      "type": "function",
      "constant": true
    },
    {
      "stateMutability": "payable",
      "type": "receive",
      "payable": true
    },
    {
      "inputs": [
        {
          "internalType": "address",
          "name": "add",
          "type": "address"
        }
      ],
      "name": "sponsorAdd",
      "outputs": [],
      "stateMutability": "nonpayable",
      "type": "function"
    }
  ],
  "bytecode": "0x608060405234801561001057600080fd5b50610166806100206000396000f3fe60806040526004361061002d5760003560e01c80637c55640b14610048578063d0496d6a146100995761003d565b3661003d5761003b336100c4565b005b610046336100c4565b005b34801561005457600080fd5b506100976004803603602081101561006b57600080fd5b81019080803573ffffffffffffffffffffffffffffffffffffffff1690602001909291905050506100c4565b005b3480156100a557600080fd5b506100ae61012a565b6040518082815260200191505060405180910390f35b7f766c4f3788585f8e621c888eceec4f0148b6cf136278b4e7dd3a8f460507fbaf81604051808273ffffffffffffffffffffffffffffffffffffffff1673ffffffffffffffffffffffffffffffffffffffff16815260200191505060405180910390a150565b6000548156fea2646970667358221220f0373b112c6d0dd2782fd97aa60a086d479d714f21484fb98e4ea0189d9881fb64736f6c63430006080033",
  "source": "pragma solidity ^0.6.4;\n\ncontract Sponsor {\n bytes32 public context;\n\n event sponsor(address sponsee);\n\n // sponsor any address that calls a function other than sponsorAdd in this contract.\n fallback() external payable {\n  sponsorAdd(msg.sender);\n }\n\n // sponsor any address that sends a transaction to this contract.\n receive() external payable {\n   sponsorAdd(msg.sender);\n }\n\n // sponsor any address provided as a parameter.\n function sponsorAdd(address add) public {\n   emit sponsor(add);\n }\n}\n",
  "sourcePath": "/home/player1/bin/sponsor/contracts/Sponsor.sol",
  "compiler": {
    "name": "solc",
    "version": "0.6.8+commit.0bbfe453.Emscripten.clang"
  },
  "schemaVersion": "3.0.23",
  "updatedAt": "2020-05-28T15:57:18.713Z",
  "networkType": "ethereum",
  "devdoc": {
    "methods": {}
  },
  "userdoc": {
    "methods": {}
  }
}