{
  "contractName": "Sponsor",
  "abi": [
    {
      "inputs": [
        {
          "internalType": "contract BrightID",
          "name": "_brightID",
          "type": "address"
        },
        {
          "internalType": "bytes32",
          "name": "_context",
          "type": "bytes32"
        }
      ],
      "stateMutability": "nonpayable",
      "type": "constructor"
    },
    {
      "inputs": [],
      "name": "brightID",
      "outputs": [
        {
          "internalType": "contract BrightID",
          "name": "",
          "type": "address"
        }
      ],
      "stateMutability": "view",
      "type": "function"
    },
    {
      "inputs": [],
      "name": "context",
      "outputs": [
        {
          "internalType": "bytes32",
          "name": "",
          "type": "bytes32"
        }
      ],
      "stateMutability": "view",
      "type": "function"
    },
    {
      "inputs": [
        {
          "internalType": "address",
          "name": "add",
          "type": "address"
        }
      ],
      "name": "sponsor",
      "outputs": [],
      "stateMutability": "nonpayable",
      "type": "function"
    },
    {
      "inputs": [],
      "name": "sponsor",
      "outputs": [],
      "stateMutability": "payable",
      "type": "function"
    }
  ],
  "bytecode": "0x608060405234801561001057600080fd5b5060405161038b38038061038b8339818101604052604081101561003357600080fd5b810190808051906020019092919080519060200190929190505050816000806101000a81548173ffffffffffffffffffffffffffffffffffffffff021916908373ffffffffffffffffffffffffffffffffffffffff1602179055508060018190555050506102e5806100a66000396000f3fe60806040526004361061003f5760003560e01c8063766c4f371461004457806377c9366214610095578063d0496d6a1461009f578063fceb1a57146100ca575b600080fd5b34801561005057600080fd5b506100936004803603602081101561006757600080fd5b81019080803573ffffffffffffffffffffffffffffffffffffffff169060200190929190505050610121565b005b61009d6101d3565b005b3480156100ab57600080fd5b506100b4610284565b6040518082815260200191505060405180910390f35b3480156100d657600080fd5b506100df61028a565b604051808273ffffffffffffffffffffffffffffffffffffffff1673ffffffffffffffffffffffffffffffffffffffff16815260200191505060405180910390f35b6000809054906101000a900473ffffffffffffffffffffffffffffffffffffffff1673ffffffffffffffffffffffffffffffffffffffff1663434147806001548373ffffffffffffffffffffffffffffffffffffffff1660001b6040518363ffffffff1660e01b81526004018083815260200182815260200192505050600060405180830381600087803b1580156101b857600080fd5b505af11580156101cc573d6000803e3d6000fd5b5050505050565b6000809054906101000a900473ffffffffffffffffffffffffffffffffffffffff1673ffffffffffffffffffffffffffffffffffffffff1663434147806001543373ffffffffffffffffffffffffffffffffffffffff1660001b6040518363ffffffff1660e01b81526004018083815260200182815260200192505050600060405180830381600087803b15801561026a57600080fd5b505af115801561027e573d6000803e3d6000fd5b50505050565b60015481565b6000809054906101000a900473ffffffffffffffffffffffffffffffffffffffff168156fea2646970667358221220c72f8cab41deaa7e3daafa42767c599e2021f2df578d34393b3fe4ca032f7ce264736f6c63430006040033",
  "source": "\npragma solidity ^0.6.4;\n\nimport \"./BrightID.sol\";\n\ncontract Sponsor {\n BrightID public brightID;\n bytes32 public context;\n\n constructor(BrightID _brightID, bytes32 _context) public {\n   brightID = _brightID;\n   context = _context;\n }\n\n // sponsor any address that sends a transaction to this contract.\n function sponsor() public payable {\n   brightID.sponsor(context, bytes32(uint(msg.sender)));\n }\n\n // sponsor any address is provided by as an parameter.\n function sponsor(address add) public {\n   brightID.sponsor(context, bytes32(uint(add)));\n }\n}\n",
  "sourcePath": "/home/player1/bin/sponsor/contracts/Sponsor.sol",
  "compiler": {
    "name": "solc",
    "version": "0.6.4+commit.1dca32f3.Emscripten.clang"
  },
  "schemaVersion": "3.0.23",
  "updatedAt": "2020-04-03T03:55:06.557Z",
  "devdoc": {
    "methods": {}
  },
  "userdoc": {
    "methods": {}
  }
}