{
  "contractName": "Sponsor",
  "abi": [
    {
      "inputs": [
        {
          "internalType": "contract BrightID",
          "name": "_brightID",
          "type": "address"
        },
        {
          "internalType": "bytes32",
          "name": "_context",
          "type": "bytes32"
        }
      ],
      "stateMutability": "nonpayable",
      "type": "constructor"
    },
    {
      "inputs": [],
      "name": "brightID",
      "outputs": [
        {
          "internalType": "contract BrightID",
          "name": "",
          "type": "address"
        }
      ],
      "stateMutability": "view",
      "type": "function"
    },
    {
      "inputs": [],
      "name": "context",
      "outputs": [
        {
          "internalType": "bytes32",
          "name": "",
          "type": "bytes32"
        }
      ],
      "stateMutability": "view",
      "type": "function"
    },
    {
      "inputs": [],
      "name": "sponsor",
      "outputs": [],
      "stateMutability": "payable",
      "type": "function"
    }
  ],
  "bytecode": "0x608060405234801561001057600080fd5b5060405161027d38038061027d8339818101604052604081101561003357600080fd5b810190808051906020019092919080519060200190929190505050816000806101000a81548173ffffffffffffffffffffffffffffffffffffffff021916908373ffffffffffffffffffffffffffffffffffffffff1602179055508060018190555050506101d7806100a66000396000f3fe6080604052600436106100345760003560e01c806377c9366214610039578063d0496d6a14610043578063fceb1a571461006e575b600080fd5b6100416100c5565b005b34801561004f57600080fd5b50610058610176565b6040518082815260200191505060405180910390f35b34801561007a57600080fd5b5061008361017c565b604051808273ffffffffffffffffffffffffffffffffffffffff1673ffffffffffffffffffffffffffffffffffffffff16815260200191505060405180910390f35b6000809054906101000a900473ffffffffffffffffffffffffffffffffffffffff1673ffffffffffffffffffffffffffffffffffffffff1663434147806001543373ffffffffffffffffffffffffffffffffffffffff1660001b6040518363ffffffff1660e01b81526004018083815260200182815260200192505050600060405180830381600087803b15801561015c57600080fd5b505af1158015610170573d6000803e3d6000fd5b50505050565b60015481565b6000809054906101000a900473ffffffffffffffffffffffffffffffffffffffff168156fea2646970667358221220ed4f9c64cc9e541be7284641984e4b41a33dadd8a1b11f119be53f5b6712c1d964736f6c63430006040033",
  "source": "pragma solidity ^0.6.4;\n\nimport \"./BrightID.sol\";\n\ncontract Sponsor {\n  BrightID public brightID;\n  bytes32 public context;\n\n  constructor(BrightID _brightID, bytes32 _context) public {\n    brightID = _brightID;\n    context = _context;\n  }\n\n  // sponsor any address that sends a transaction to this contract.\n  function sponsor() public payable {\n    brightID.sponsor(context, bytes32(uint(msg.sender)));\n  }\n}\n",
  "sourcePath": "/home/player1/bin/sponsor/contracts/Sponsor.sol",
  "compiler": {
    "name": "solc",
    "version": "0.6.4+commit.1dca32f3.Emscripten.clang"
  },
  "schemaVersion": "3.0.23",
  "updatedAt": "2020-04-02T03:40:03.108Z",
  "devdoc": {
    "methods": {}
  },
  "userdoc": {
    "methods": {}
  }
}